:100000000C942A000C94D8040C9402050C942C0532
:100010000C9447000C9447000C9447000C94470044
:100020000C9447000C9447000C9447000C94470034
:100030000C9447000C9447000C9447000C94470024
:100040000C940E030C9447000C9447000C9447004A
:100050000C94470011241FBECFE5D8E0DEBFCDBF12
:1000600012E0A0E6B0E0E0EBFAE002C005900D92ED
:10007000A030B107D9F722E0A0E0B2E001C01D92A4
:10008000A230B207E1F70E94E8020C9456050C94E6
:1000900000000E94B10260E080E00E947F0288E6DA
:1000A00090E00E949E0260E082E00E947F0289E769
:1000B00090E00E949E022FEF87EA91E62150804057
:1000C0009040E1F700C000004BE360E080E00E9458
:1000D000BB020895CF93C0E00DC067ED71E080E0F2
:1000E0000E94CB026C2F83E00E947F0280E00E947E
:1000F0009B02CE5FC43188F3CF9108950E94B10274
:100100000E946A0060E080E00E947F028EE890E03A
:100110000E949E0260E081E00E947F028FE990E0F1
:100120000E949E022FEF8DE399E421508040904081
:10013000E1F700C000004CE360E080E00E94BB02F9
:100140008FE59AEE0197F1F700C0000060E080E0D3
:100150000E947F0284EB90E00E949E0260E081E0BA
:100160000E947F0286EC90E00E949E0260E082E0A6
:100170000E947F028AED90E00E949E029FEF2DE395
:1001800089E4915020408040E1F700C000004CE33A
:1001900060E080E00E94BB028FE59AEE0197F1F7E4
:1001A00000C0000060E080E00E947F0284EB90E0ED
:1001B0000E949E0260E081E00E947F0280EF90E05A
:1001C0000E949E0260E082E00E947F0284E091E053
:1001D0000E949E029FEF2DE389E4915020408040D1
:1001E000E1F700C000004CE360E080E00E94BB0249
:1001F0008FE59AEE0197F1F700C0000060E080E023
:100200000E947F0285E191E00E949E0260E081E011
:100210000E947F0281E291E00E949E0260E082E003
:100220000E947F0286E391E00E949E029FEF2DE3F1
:1002300089E4915020408040E1F700C000004CE389
:1002400060E080E00E94BB028FE59AEE0197F1F733
:1002500000C0000060E080E00E947F0289E491E03D
:100260000E949E0260E081E00E947F028BE591E0A7
:100270000E949E0260E082E00E947F0280E791E09F
:100280000E949E029FEF2DE389E491502040804020
:10029000E1F700C000004CE360E080E00E94BB0298
:1002A0008FE59AEE0197F1F700C0000060E080E072
:1002B0000E947F0286E891E00E949E0260E081E059
:1002C0000E947F028BE991E00E949E0260E082E042
:1002D0000E947F0281EB91E00E949E029FEF2DE33E
:1002E00089E4915020408040E1F700C000004BE3DA
:1002F00060E080E00E94BB028FE59AEE0197F1F783
:1003000000C000000895CF93C0E00DC067ED71E01C
:1003100080E00E94CB026C2F81E00E947F0280E08F
:100320000E949B02CE5FC43188F3CF91089560E0B4
:1003300082E00E947F0285EC91E00E949E02089577
:10034000CF93C82F60E083E00E9455046C2F661F96
:100350006627661F8CE00E945504C6FB662760F97D
:100360008AE00E945504C5FB662760F989E00E9477
:100370005504C4FB662760F988E00E94550461E0DB
:1003800082E00E9455048FEC97E00197F1F700C0DE
:10039000000060E082E00E9455048FEC97E0019736
:1003A000F1F700C00000C3FB662760F98CE00E94F3
:1003B0005504C2FB662760F98AE00E945504C1FB20
:1003C000662760F989E00E9455046C2F617088E00F
:1003D0000E94550461E082E00E9455048FEC97E092
:1003E0000197F1F700C0000060E082E00E94550430
:1003F0008FEC97E00197F1F700C00000CF910895CE
:10040000CF93C82F61E083E00E9455046C2F661FD4
:100410006627661F8CE00E945504C6FB662760F9BC
:100420008AE00E945504C5FB662760F989E00E94B6
:100430005504C4FB662760F988E00E94550461E01A
:1004400082E00E9455048FEC97E00197F1F700C01D
:10045000000060E082E00E9455048FEC97E0019775
:10046000F1F700C00000C3FB662760F98CE00E9432
:100470005504C2FB662760F98AE00E945504C1FB5F
:10048000662760F989E00E9455046C2F617088E04E
:100490000E94550461E082E00E9455048FEC97E0D1
:1004A0000197F1F700C0000060E082E00E9455046F
:1004B0008FEC97E00197F1F700C00000CF9108950D
:1004C0002FE788E391E0215080409040E1F700C0A1
:1004D000000082E00E94A00188E20E94A0018CE05E
:1004E0000E94A00181E00E94A0018FEC97E001979B
:1004F000F1F700C0000086E00E94A001089581117C
:1005000005C080E8860F0E94A0010895813029F47B
:1005100080EC860F0E94A0010895823029F484E9BE
:10052000860F0E94A0010895833021F484ED860F88
:100530000E94A00108950E94000208950F931F9346
:10054000CF938C01C0E003C00E949B02CF5FF801F3
:10055000EC0FF11D80818111F7CFCF911F910F9189
:10056000089581E00E94A0018FEC97E00197F1F7D8
:1005700000C000000895CF93DF93D42F0E947F0224
:10058000C0E004C080E20E949B02CF5FCD17D0F391
:10059000DF91CF9108950F931F93CF938B0190E03C
:1005A0000896880F880F880F0E94A001C0E007C03E
:1005B000F801EC0FF11D80810E940002CF5FC8306E
:1005C000B8F380E80E94A001CF911F910F91089588
:1005D0000E9445040E9460020E947E000E94490021
:1005E0000E9483010E946A000E949701FFCF9091B0
:1005F0000102911112C096B1986096B996B19062BD
:1006000096B997B1907E97B997B1892B87B986B182
:10061000806486B981E08093010208951F920F9251
:100620000FB60F9211242F933F934F935F936F93C5
:100630007F938F939F93AF93BF93EF93FF9310920A
:100640000102E0916000F091610009958091000243
:100650000E94F70280910002813011F41092000292
:1006600080910002811103C08F5F80930002FF918F
:10067000EF91BF91AF919F918F917F916F915F911A
:100680004F913F912F910F900FBE0F901F90189593
:10069000982F9770869586958695613009F455C098
:1006A00020F0623009F4A1C008958130C1F028F033
:1006B000823039F18330B9F108954AB321E030E056
:1006C000B90102C0660F771F9A95E2F7CB01942F0C
:1006D000982B9ABB9BB3809589238BBB089547B316
:1006E00021E030E0B90102C0660F771F9A95E2F76A
:1006F000CB01942F982B97BB98B38095892388BB07
:10070000089544B321E030E0B90102C0660F771FBD
:100710009A95E2F7CB01942F982B94BB95B38095D3
:10072000892385BB089541B321E030E0B90102C0BF
:10073000660F771F9A95E2F7CB01942F982B91BB08
:1007400092B38095892382BB08958130C1F028F04F
:10075000823039F18330B9F108954AB321E030E0B5
:10076000B90102C0660F771F9A95E2F7CB01809519
:10077000942F98239ABB9BB389238BBB089547B3CF
:1007800021E030E0B90102C0660F771F9A95E2F7C9
:10079000CB018095942F982397BB98B3892388BB6E
:1007A000089544B321E030E0B90102C0660F771F1D
:1007B0009A95E2F7CB018095942F982394BB95B33B
:1007C000892385BB089541B321E030E0B90102C01F
:1007D000660F771F9A95E2F7CB018095942F9823A7
:1007E00091BB92B3892382BB08958130C1F028F078
:1007F000823039F18330B9F108954AB321E030E015
:10080000B90102C0660F771F9A95E2F7CB01962FC8
:10081000909594239ABB9BB3892B8BBB089547B3C8
:1008200021E030E0B90102C0660F771F9A95E2F728
:10083000CB01962F9095942397BB98B3892B88BBB7
:10084000089544B321E030E0B90102C0660F771F7C
:100850009A95E2F7CB01962F9095942394BB95B38C
:10086000892B85BB089541B321E030E0B90102C076
:10087000660F771F9A95E2F7CB01962F90959423F8
:1008800091BB92B3892B82BB0895CF93C0E009C07E
:10089000EC2FF0E0E152FE4F60818C2F0E94480364
:1008A000CF5FC032A8F3CF910895982F97708695A7
:1008B000869586956130E1F5813099F028F0823097
:1008C000E9F0833041F108954BB321E030E0B90104
:1008D00002C0660F771F9A95E2F7CB01842B8BBB82
:1008E000089548B321E030E0B90102C0660F771FD8
:1008F0009A95E2F7CB01842B88BB089545B321E09C
:1009000030E0B90102C0660F771F9A95E2F7CB017C
:10091000842B85BB089542B321E030E0B90102C0C9
:10092000660F771F9A95E2F7CB01842B82BB08955F
:100930008130A1F028F08230F9F0833059F1089528
:100940004BB321E030E0B90102C0660F771F9A95E2
:10095000E2F7CB01809584238BBB089548B321E057
:1009600030E0B90102C0660F771F9A95E2F7CB011C
:100970008095842388BB089545B321E030E0B90118
:1009800002C0660F771F9A95E2F7CB01809584230A
:1009900085BB089542B321E030E0B90102C0660F83
:1009A000771F9A95E2F7CB018095842382BB089547
:1009B0001F920F920FB60F9211242F933F934F93D4
:1009C0005F936F937F938F939F93AF93BF93EF93B7
:1009D000FF93E0916600F0916700E230F10509F0C5
:1009E0000995FF91EF91BF91AF919F918F917F9169
:1009F0006F915F914F913F912F910F900FBE0F908C
:100A00001F9018951F920F920FB60F9211242F93DB
:100A10003F934F935F936F937F938F939F93AF9386
:100A2000BF93EF93FF93E0916400F0916500E23093
:100A3000F10509F00995FF91EF91BF91AF919F9159
:100A40008F917F916F915F914F913F912F910F9077
:100A50000FBE0F901F9018951F920F920FB60F9216
:100A600011242F933F934F935F936F937F938F93B3
:100A70009F93AF93BF93EF93FF93E0916200F09148
:100A80006300E230F10509F00995FF91EF91BF9104
:100A9000AF919F918F917F916F915F914F913F9116
:100AA0002F910F900FBE0F901F901895F894FFCFC5
:100AB0000200020002000200506C656173652C2088
:100AC0005072617920666F72006F75722062726F6A
:100AD000746865727320696E2047617A6100446FA3
:100AE00020796F75206B6E6F7720746865200073B6
:100AF0006974756174696F6E20696E2047617A61EF
:100B00003F202000496620796F7520646F6E27743E
:100B100020646965200066726F6D20626F6D62618E
:100B200072646D656E742C20750077696C6C20643E
:100B300069652066726F6D2068756E6765722E003C
:100B400066726F6D2068756E6765722C20752077F0
:100B5000696C6C006469652066726F6D20746869E9
:100B60007273742E0043757272656E746C792C20EA
:100B70000047617A61206C61636B732077617465F3
:100B8000722C20202000666F6F642C20656C6563DA
:100B9000747269636974792E004D6F737420696D86
:100BA000706F7274616E746C792C006675656C2060
:100BB00069732061626F757420746F20202020009B
:100BC00072756E206F75742C207768696368206D6C
:100BD00065616E73200074686520656E64206F66C1
:100BE00020202020202020202020006865616C74B7
:100BF000686361726520616E6420202020202020BF
:100C00000077617465722073616E69746174696FD5
:100C10006E2E202000456E64204F462054686520CB
:100C200053746F72792E0004150E0404040A110126
:100C300001000000000000000000000000000000B3
:100C4000000000000000000001020201010101009B
:00000001FF
